:02000000812954
:06000600000000000800EC
:10000C000F3083120313FC004730FD00FD0B0C284E
:0A001C00FC0B0C2800000000080097
:0E002600213083120313FD00FD0B1728080084
:1000340083120313EB1B20288813212888176B1BBA
:100044002528081326280817EB1A2A2888122B2893
:1000540088166B1A2F2808123028081664183428BA
:10006400081535280811881503208811EB193C2838
:1000740088133D2888176B1941280813422808174C
:10008400EB1846288812472888166B184B28081244
:100094004C2808166418502808155128081188158A
:1000A40003208811641C58280620592813200800AE
:1000B400831603139818602800005A2883126A08CC
:0400C4009900080097
:1000C8008312031364106A08EB001A2064140800F2
:0E00D8008312031363088A0062088200080086
:1000E600831603138811081108128812081388133F
:1000F6008312881108118813081388120812062023
:100106000620062088160816881503208811062062
:1001160088150320881106208815032088110620DB
:1001260008128815032088110620881503208811D7
:100136008812881788150320881106208813081648
:1001460088150320881108128815032088110620B7
:1001560088150320881108168815032088110620A3
:10016600081288150320881188170817881608169C
:0C0176008815032088110620641408007E
:1001820083120313E801660884000008E700670889
:10019200003A0319D6286708EA005A20E80A6808D4
:0C01A200660784000008E700C828080079
:1001AE00E928803083120313E600FC28C030E600F5
:1001BE00FC289430E600FC28D430E600FC28803081
:1001CE00E600FC28831203136608013A0319D828A7
:1001DE006608023A0319DD286608033A0319E02877
:1001EE006608043A0319E328E6286703F000660858
:1001FE00F0077008E6007008EB001A206410E901A1
:10020E00690868078400000803191529690868073A
:10021E0084000008EA006420E90A07296414080033
:10022E00831603139816903083129800831687173F
:10023E00071383128C1E26291A08F00020290800A5
:10024E00203083120313E600C1200B30FB00263052
:10025E00FC005D30FD00FD0B3229FC0B3229FB0B3F
:10026E00322900000000A030E600C1200B30FB0058
:10027E002630FC005D30FD00FD0B4329FC0B4329AD
:10028E00FB0B4329000000005030E600C1201A305D
:10029E00EA005A200B30FB002630FC005D30FD00DA
:1002AE00FD0B5729FC0B5729FB0B572900000000AB
:0202BE00080036
:1002C000013083120313EB001A200130E6000130E5
:0A02D000E7006508E800D7200800E9
:1002DA0073200130EB001A200C30EB001A200800C2
:1002EA006C208A110A128000840AE20A0319E30ABE
:0802FA00F003031D7529080043
:100302003E22FF3083160313860088016D213330AD
:1003120083169900181517210B30FB002630FC00BC
:100322005D30FD00FD0B9329FC0B9329FB0B9329F8
:1003320000000000061CB1293730E5006021881456
:100342003330FB00BB30FC00DF30FD00FD0BA72982
:10035200FC0BA729FB0BA729000000008810DA2953
:10036200861CC4292B30E50060211F30FB00713050
:10037200FC001E30FD00FD0BBC29FC0BBC29FB0B55
:10038200BC290000DA29061DDA294630E500602181
:10039200881427213330FB00BB30FC00DF30FD0026
:1003A200FD0BD129FC0BD129FB0BD1290000000048
:0C03B20088100130EB001A209B29DE2986
:10047C0020308400423083120313F000E430E20099
:10048C000130E3007521A030840017308312F00096
:0C049C002630E2000230E3007521080069
:1003C800413454342B3443344D34473446343D346B
:0603D80031340D34003445
:1003DE0052346534613464347934203474346F3477
:0803EE00203467346F34003441
:1003F6005234653461347234203444346F346F348B
:0E040600723420344F34703465346E34003458
:1004140045346D3465347234673465346E34633412
:0404240079340034F3
:1004280045346D3465347234673465346E346334FE
:100438007934203441346C34653472347434213462
:040448000D3400343B
:10044C00413454342B3443344D34473453343D34D9
:10045C0022342B343134323433343434353436346E
:0E046C00373438343934303422340D3400340F
:02400E007A3BFB
:00000001FF
